:020000040800F2
:10000000F8FF012009520508A3B4040891B40408BC
:10001000A5B40408B5B40408C5B404080000000081
:10002000000000000000000000000000D5B404083B
:10003000D7B404080000000085C50408E1C5040821
:1000400039500508C9B50408DBB50408E1B5040852
:10005000E52E0508395005085DB5040863B50408A8
:1000600069B504086FB5040875B5040801E904080A
:1000700011E9040821E9040831E9040841E9040808
:1000800051E9040861E904083950050839500508A8
:100090003950050839500508395005087BB5040862
:1000A000F5B50408FBB504080DB6040813B604083A
:1000B00019B6040831B6040839B6040839500508E1
:1000C00039500508395005083950050839500508D8
:1000D0003950050899B604089FB60408A5B6040867
:1000E0009FB50408CFB50408E5B4040875B6040844
:1000F0007BB6040893B604088DB6040871E90408B9
:10010000395005083950050851B60408395005081A
:10011000ABB60408B1B6040869B604086FB60408A3
:1001200081E9040891E90408A1E90408B1E9040897
:10013000C1E9040839500508D5B504083950050847
:10014000395005083950050839500508D9B4040854
:10015000D1E90408E1E90408F1E90408B7B60408A4
:100160003950050839500508395005083950050837
:1001700039500508395005083950050800000000BD
:10018000395005083950050842884378007843EA19
:10019000022340EA032070470B0A017043700B0CE6
:1001A000090E8370C1707047036A0239023B99429D
:1001B0003DBFC389406B01FB03000020704700F185
:1001C0000B010023DA0142EA530310F8012B52FA23
:1001D00083F38842DBB2F5D11846704737B50D4638
:1001E0000446A8B103689BB15A798AB181885A89BB
:1001F00091420DD10DF107020621186802F0F4FAC0
:1002000030B99DF8070010F0010001D1236801E02A
:10021000092000232B6003B030BD38B503680446C5
:1002200018785D1C20B140F2B51156F0E9F808B11C
:10023000256038BD4FF0FF3038BDCA7E8B7E032865
:1002400043EA022301BF487D0A7D42EA002243EAD5
:10025000024318467047C2F307238A76CB760378A9
:10026000032B01BF120C0A75120A4A75704770B54C
:10027000C37904460BB9002070BD00F13C06826BC7
:1002800000680123314602F09AFA80B9A16BE36A53
:10029000626AE071CB1A9342EDD2A379022BEAD1C4
:1002A0000A4401233146206802F089FAE3E701207D
:1002B00070BDF8B50446FFF7DAFF0546002842D1C5
:1002C0006379032B37D1277A012F34D104F13C060F
:1002D00001464FF40072304642F022FF552384F865
:1002E0003A32AA2384F83B3252234122722184F805
:1002F0003C3084F83D30612384F83E3084F83F2060
:1003000084F8222284F8233284F8201284F82112FF
:1003100004F50970A169FFF73FFF616904F50A70F0
:10032000FFF73AFFA26A20680132A2633B463146DA
:1003300002F045FA257200221146206802F054FAB4
:10034000003018BF0120F8BD836B8B4270B50646A4
:100350000D4611D0FFF78BFF044670B92A460123E2
:1003600006F13C01306802F01BFA00281CBF4FF078
:10037000FF350124B56300E00024204670BD000075
:10038000002310B5C3714FF0FF3383630446FFF7BA
:10039000DBFF18BB94F83B2294F83A3243EA02237D
:1003A0004AF6552293421BD194F83C30EB2B03D0F4
:1003B0001833DBB2012B15D803220B4904F172006C
:1003C00042F0C2FE78B10522084904F18E0042F0E5
:1003D000BBFE002814BF0220002010BD042010BD69
:1003E000032010BD022010BD301D0908341D09086E
:1003F0002DE9F041437986B0044601F0FE05ABB12A
:1004000006210DF10702006802F0EEF99DF80730B1
:10041000D9070BD4002D00F0298103F0040303F069
:10042000FF00002B00F025810A2022E100236371E8
:100430000DF107020521206802F0D6F99DF807307A
:10044000DA0700F115810DB15B07EDD400212046DC
:10045000FFF796FF0228034604D0012800F201812D
:10046000257965B304F20225002102AF15F8040CCA
:1004700010B12846FFF788FE47F821000131042912
:1004800005F11005F2D1267906B1013E57F8265044
:100490002DB129462046FFF773FF034600E00323F2
:1004A000227912B1042B06D1DEE0012B07D90136E7
:1004B000032EEBD9D5E0012B01D90D20D9E094F81A
:1004C000482094F8473043EA0223B3F5007FF4D183
:1004D00094F8536094F8523053EA062604D104F19C
:1004E0006000FFF751FE064694F84C7066627B1E72
:1004F000012BA771E1D894F849108BB2E381002B4E
:10050000DBD04B1E0B42D8D194F84E8094F84D307E
:1005100043EA082818F00F0FA4F80C80CDD194F806
:10052000500094F84F3053EA002003D104F15C00EE
:10053000FFF72AFE94F84B3094F84A2052EA03233E
:10054000BBD006FB07FE03EB181272448242B4D8FC
:10055000801AB0FBF1F148484F1E8742ADD84FF6E4
:10056000F570814206D840F6F577B94294BF01276D
:10057000022700E0032702312B442A44032F216283
:10058000A562E362626310D194F8672094F8663044
:1005900053EA022391D1B8F1000F8ED104F1680023
:1005A000FFF7F2FD2063890010E0B8F1000F84D05E
:1005B000022F4FEA410018BF4018734418BF01F0E2
:1005C000010123630CBF014601EB500101F2FF1151
:1005D000B6EB512FFFF471AF4FF0FF33A3616361AE
:1005E000032F4FF0800323722FD194F86D2094F8DD
:1005F0006C3043EA0223012B27D1691C2046FFF708
:10060000A3FE10BB94F83B2294F83A32207243EADE
:1006100002234AF65522934217D104F13C00FFF71A
:10062000B3FD164B984210D104F50870FFF7ACFDEE
:10063000134B984209D104F50970FFF7A5FDA0619D
:1006400004F50A70FFF7A0FD60610E4A6771138818
:1006500001339BB21380638100200B4B2361E06167
:1006600007E0042B7FF429AF012002E0284600E0D8
:10067000032006B0BDE8F081F4FFFF0F5252614144
:10068000727241614C2A00204E2A002001292DE976
:10069000F04706460C4615466FD9036A99426CD25C
:1006A0004379022B3CD0032B4CD0012B65D101EBBD
:1006B0005108C16A01EB5821FFF746FE07460028A2
:1006C0005CD106F13C0A08F10109C8F3080814F0EE
:1006D00001041FBF1AF8083003F00F022B0103F0CA
:1006E000F00314BF1343EBB20AF80830F16A012398
:1006F000F37101EB59213046FFF726FE0746E8BBB0
:10070000C9F3080914B1C5F3071506E01AF8091072
:10071000C5F3032521F00F010D430AF8095029E024
:10072000C16A01EB1421FFF70FFE074630BB6400DE
:1007300006F13C0304F4FF741A191D55C5F307258F
:10074000557017E0C16A01EBD411FFF7FDFD0746B4
:10075000A0B9A40006F13C0304F4FE741C44204636
:10076000FFF712FD25F0704500F070412943204647
:10077000FFF712FD0123F37100E002273846BDE8C0
:10078000F0870129F8B505460C4652D9036A99420B
:100790004FD24379022B29D0032B38D0012B48D1DB
:1007A00001EB5106C16A01EB5621FFF7CDFD10B1F7
:1007B0004FF0FF30F8BD771CE96AC6F308062E44F7
:1007C00001EB5721284696F83C60FFF7BDFD002855
:1007D000EED1C7F308073D44E30795F83C0046EA2D
:1007E00000204CBF0009C0F30B00F8BDC16A01EB4B
:1007F0001421FFF7A9FD0028DAD164003C3504F488
:10080000FF742B1958782B5D43EA0020F8BDC16AAC
:1008100001EBD411FFF798FD0028C9D1A40005F120
:100820003C0004F4FE742044FFF7AEFC20F070405E
:10083000F8BD0120F8BDB1F5001FF8B505460C461E
:1008400001D30220F8BDCA06FBD18268066829617F
:1008500062B97379022B01D9336B33B9B389B3EB26
:10086000541FEED9336BAB6116E01A46F7897F024D
:10087000BC4211460CD32868FFF783FF431C024695
:1008800018D00128DDD9336A9842DAD2E41BEFE7A9
:100890003046FFF789FCA861AB696A61002BD0D0B4
:1008A00003EB54233C36C4F308043444AB61EC61DD
:1008B0000020F8BD0120F8BD2DE9F0418046056813
:1008C0000F4631B96E69A6B12B6A9E4228BF012638
:1008D00010E02846FFF755FF012861D9421C03D1DB
:1008E0004FF0FF30BDE8F0812B6A984259D33E4665
:1008F00000E00126AB6913B90020BDE8F081BE42DB
:1009000017D12B6AD8F80000741C9C4228BF02241F
:100910002146FFF736FF012842D0431CE0D038B112
:100920006B69012B05D92A6A934238BF1E4600E045
:10093000A4B934462B6A01349C4202D3012EDBD980
:1009400002242146D8F80000FFF71BFF30B1012830
:1009500026D00130C4D0B442ECD1CDE74FF0FF3205
:1009600021462846FFF792FEC0B947B92A6AAB690B
:100970006C61023A93420AD8013BAB6107E0224620
:1009800039462846FFF782FE0028EFD006E02B7A92
:1009900043F001032B722046BDE8F08101289FD06F
:1009A0000120BDE8F081F8B50D46012D074611463E
:1009B00001D80220F8BD0468236A9D42F9D22AB109
:1009C0004FF0FF322046FFF761FE08BB294638682A
:1009D000FFF7D7FE064608B90020F8BD0128E8D089
:1009E000431C14D0002229462046FFF74FFE78B959
:1009F000226AA369911E8B4205D20133A361237A37
:100A000043F00103237296423546DFD3E4E7012029
:100A1000F8BDF8B505460E46FFF729FC0446F8B9BF
:100A200031462846FFF7C0FB05F13C060746A863A0
:100A30004FF400722146304642F072FBEB899C4233
:100A400004D3E889001B18BF0120F8BD01233A191F
:100A50003146286801F0B3FE0028F2D10134EDE7F9
:100A60000120F8BD2DE9F843076906682037B7F57E
:100A7000001F24BF00238361836904468946002B3D
:100A800045D0C7F30808B8F1000F39D141690133E7
:100A9000836131B9B389B3EB571F31D80023A36108
:100AA00035E0F389013B13EA572329D13046FFF79C
:100AB00068FE0128054602D80220BDE8F883421CE2
:100AC00002D10120BDE8F883336A984212D3B9F10C
:100AD000000FE3D061692046FFF7EEFE0546C8B17E
:100AE0000128E9D0431CECD001463046FFF791FFC6
:100AF0000028E6D1656129463046FFF755FBA06125
:100B00003C3646442761E6610020BDE8F8830420B6
:100B1000BDE8F8830720BDE8F883F8B50F4600214B
:100B200004460668FFF787FEA8B90546A169304666
:100B3000FFF70AFC78B9E3691B78E52B00D01BB9F5
:100B40000135BD4201D1F8BD054601212046FFF720
:100B500089FF0028EAD0042808BF0720F8BD00005C
:100B60002DE9F84F4FF0FF08494E046807460D463F
:100B7000C1460420B96900297BD02046FFF7E4FB79
:100B8000002877D1F8690278002A7BD0C37AE52A59
:100B900003F03F03BB7163D02E2A61D023F0200104
:100BA000A1F1080CDCF1000141EB0C01A94257D185
:100BB0000F2B49D1510605D53969437BF96202F003
:100BC000BF0202E091454BD1434690F80D80984515
:100BD00045D1C17E837E43EA01231BB2002B3FD166
:100BE0000178D4F810E021F0400101394FF00D0CEC
:100BF0000CFB01FC4FF001094FF6FF7A995D00EB09
:100C0000010B415C9BF801B041EA0B21B9F1000FE7
:100C100008D0BCF1FF0F23D82EF81C1089460CF128
:100C2000010C01E051451BD101330D2BE6D10378B6
:100C30005B0623D5B9F1000F20D0BCF1FF0F0FD810
:100C400000232EF81C3019E0B9F1000F03D1FFF793
:100C5000B6FA804518D04FF0FF33FB6214E0984697
:100C60004FF0FF0900213846FFF7FCFE002881D035
:100C700000E048B10023BB61BDE8F88F531E5FFA66
:100C800083F9EFE70420F5E70020BDE8F88F00BF07
:100C90007E1D0908C16A4B1C2DE9F0410446056818
:100CA000066903D1E5274FF001080FE0FFF7C3FD08
:100CB000A8B9F7E7E3691F7085F8078023699E42AA
:100CC0000DD901462046FFF7CDFE28B9A169284677
:100CD000FFF73AFB0028EDD0042808BF0220BDE84A
:100CE000F08100002DE9F04F002185B00446D0F8D6
:100CF0000090FFF7A0FD002840F09C804FF0FF33EC
:100D0000FF26E362B0460093A1694846FFF71CFB4B
:100D1000002840F08F80E5692F78002F7FD0EA7A95
:100D2000E52F02F03F03A3716DD0120702D50F2B00
:100D300069D101E00F2B53D194F82B30580666D4BB
:100D4000790605D523696E7BE36207F0BF0701E0F2
:100D5000B8455AD16B7BB34257D1EE7EAA7E42EAA8
:100D6000062636B2002E5ED195F80080D9F810B074
:100D700008F03F0808F1FF324FF00D0808FB02F8B9
:100D800001212E4AB25CA81815F802A040784AEA60
:100D9000002AB1B1B8F1FF0F45D85046039355F082
:100DA00043FB08F1010202903BF81800019255F054
:100DB0003BFB0299039B814235D1019A51469046F3
:100DC00003E04FF6FF7292452DD101360D2ED8D19A
:100DD0002A78520629D541B33BF818202AB322E0DD
:100DE000B8F1000F04D12846FFF7E9F9864218D080
:100DF00094F82B30DB0706D40B2204F1200128469F
:100E000042F0A2F9B0B1009BE3624FF0FF0800216D
:100E10002046FFF727FE00283FF476AF0AE00420C3
:100E200008E0404606E01E46EFE7013F5FFA87F81C
:100E30001E46ECE705B0BDE8F08F00BF7E1D090837
:100E40002DE9F04F90F82BA01AF0A00489B00546C8
:100E500040F0E18007683A6932F814300BB1013490
:100E6000FAE705F1200696E807000DF114091AF0DB
:100E7000010F89E8070067D0402385F82B304FF039
:100E800001084FF07E0B99E807003346D7F810E0D1
:100E900003C323F8022BB8F1050F4FEA12421A7070
:100EA00001D8434616E0AEF10201434631F8022F65
:100EB00082B1102002F0010E0EEB430313F4803FC9
:100EC0001CBF83F4883383F0210301384FEA5202B8
:100ED000F0D1EBE7072203F00F0000F130013929D0
:100EE00088BF00F13701013A03A810441B09417083
:100EF000F1D108A9114401F814BC9A4204D0F15C64
:100F0000202901D00133F8E73344072A9BBF08A901
:100F10008918202111F8141C03F8011BA3EB06010A
:100F200098BF01320729F0D92846FFF7DBFE30B918
:100F300008F10108B8F1640FA5D1072089E0042861
:100F400040F0878085F82BA01AF0020F1BBF0C34ED
:100F50000D230124B4FBF3F418BF013421462846C5
:100F6000FFF7DBFD002874D1013C56D029692846E3
:100F7000A1EB4411FFF75FFC00286AD13046FFF770
:100F80001EF98046A9693846FFF7DEF98646002833
:100F90005FD1EB69D7F810C018734FF00F02E1B2C0
:100FA000DA729876D8764A1E0D20424383F80D8077
:100FB000019270464FF6FF7948451FBF019A3CF8F1
:100FC000120001320192244A1EF802A00EF1010E15
:100FD00003EB0A0B03F80A004FEA102A002808BFA7
:100FE0004846BEF10D0F8BF801A0E5D14FF6FF7E0C
:100FF000704503D0019A3CF812200AB941F0400133
:1010000019700123FB7100212846FFF72BFD00BB5F
:10101000013CB7D101E006201BE0A9693846FFF783
:1010200093F90446A0B920222146E86942F078F8F5
:1010300003CEEB6918605960B278318819819A72D1
:1010400095F82B30EA6903F0180313730123FB7141
:10105000204609B0BDE8F08F7E1D09082DE9F04754
:101060000026D0F800A08E75836907460C46002B39
:1010700000F09180C36A013337D0B0463546DAF8C4
:101080001030985B50B3B8F1000F05D100F5205334
:101090009BB2B3F5006F1BD340F2B51140EA084094
:1010A00055F08EF9FF28C5F1FF0908D9B9F1010FF4
:1010B00011D96319020A9A75D875022306E050B156
:1010C000B9F1000F09D06319987501231D44002060
:1010D00002368046D3E7002500E04D46B8F1000F08
:1010E00018BF002525440023AB7500231A462E2087
:1010F000FD69511CAA5C202A0CD0052A08BFE522F4
:10110000092904D10B2B9EBFE51801336872E5183D
:1011100001336A720B290A46EAD1E21800215172A2
:10112000A27D1ABB23B104F108010820134612E086
:101130003F23A375012312E092B22E2AA2F14105AA
:1011400008BF1020192D04D8FD692D7B284218BF37
:1011500020324A73013311F8012F002AECD12344C5
:1011600000229A75FB691B7B03B96372FB69DB7A0A
:101170002372F96901F11C00FFF706F82060CA7DAF
:101180008B7D43EA0223E3804A7E0B7E43EA0223FF
:10119000A380BDE8F087BDE8F08700002DE9F04F9F
:1011A0000B78D0F800B02F2B87B00646884601D0C8
:1011B0005C2B01D1424602E0DBF81C3008E01378DA
:1011C0002F2B904602F10102F9D05C2BF7D00023BF
:1011D000B36098F800301F2B67D8802386F82B3037
:1011E00000213046FFF727FB55E12F281FD05C2850
:1011F0001DD07F2804D8A94A12F8013F002B5BD1EB
:10120000FE2D00F240812AF81500013505A8FFF7F0
:1012100004F8471C00F03781B0F5803F28BF030C6D
:1012200080B224BF2AF8153001351F28DDD8DDF83B
:10123000148098F800302F2B41D05C2B3FD01F2812
:101240008CBF00240424012D3DD1BAF800302E2B90
:101250003FD100232AF8153006F11F029D4294BFAA
:1012600020212E2101330B2B02F8011FF6D144F06F
:10127000200486F82B403046FFF734FD96F82B30DB
:10128000002840F0EC805A0700F10581B379DB06B5
:1012900040F1FB8033699BF80500C3F308030BF1B1
:1012A0003C011944FEF7C9FFB0603368CDF81480E3
:1012B000D3F810A00025A9E798429DD1E3E008F1FA
:1012C00001030593B3E7022D03D1BAF802302E2BA8
:1012D000BBD00AEB450304E033F8022D202A03D1EA
:1012E000013D002DF8D101E02E2AF9D000210AEBB2
:1012F00045032AF81510002D00F0C5803AF811209A
:10130000202A01D10131F9E709B92E2A04D144F08C
:10131000030401E0013D03D033F8022D2E2AF9D158
:101320004FF020324FF0000972623262C6F8272077
:1013300008234F463AF811004A1C00286ED0202896
:1013400003D02E2805D1AA4208D044F00304114648
:10135000F0E7994505D2AA4215D198E09945C0F029
:1013600096800B2B03D144F003040B2356E0AA42D2
:1013700002D044F0030451D8BF00FFB22A460B2329
:101380004FF00809E3E77F2826D9039340F2B5110F
:1013900044F002030292019355F012F810F0800F0E
:1013A000029A039B04D000F07F003D49085C11E0E5
:1013B000FF280FD9591E894503D344F003049946E9
:1013C000C5E706EB0901040A81F8204009F101098B
:1013D000019C1CE0019C30B1DFF8C8E01EF8011F41
:1013E00029B18842FAD144F003045F200FE0A0F154
:1013F000410189B2192901D847F00207A0F1610122
:1014000089B219299EBF203847F0010780B206EB48
:10141000090109F1010981F8200098E796F82020D8
:10142000E52A04BF052286F82020082B04BFBF0050
:10143000FFB207F00C030C2B03D007F00303032BC0
:1014400001D144F00204A5073FF513AFF80748BFE8
:1014500044F01004790748BF44F0080409E7042861
:1014600019D113F0200F03F0040307D0002B3FF431
:101470001CAF802386F82B3000200CE0002B14BF1B
:101480000420052007E0062005E0052003E00B2BE3
:101490007FF472AF67E707B0BDE8F08F391D090828
:1014A0008B1D0908421D090800214171FEF7A0BFEC
:1014B0002DE9F04F06468DB092461D460C46002998
:1014C00000F0AF8003F03F084146FEF791FF07466A
:1014D000002840F0B0800DF13009514649F8306DD8
:1014E0004846FFF75BFE20B99DF92B30002BB8BFB3
:1014F000062015F01C0F46D040B1042802D1484602
:10150000FFF79EFC48F0080848B191E09DF80630CE
:1015100013F0110F40F08B806D0700F1848018F0FC
:10152000080F3FD0DDF81CB0B24659461AF8050F37
:10153000FEF783FE054651F0C1FF01460BF10E0098
:10154000FEF72AFE079B2022DA72079900225046F6
:10155000FEF781FE079B00221A775A779A77DA778F
:101560000123F371E5B129464846D6F838A0FFF7C4
:101570001AFA00285CD151463046FEF7E5FE013DDF
:10158000756150B154E0002852D19DF80630D8065C
:101590004BD4A90701D5DA0749D418F0080F01D0B8
:1015A00048F04008B36B079D236265627079294655
:1015B000FEF743FE0146A06005F11C00FEF7E4FDC6
:1015C0007389A38018F0200F4FF000030546E060F8
:1015D000266084F810806374E36163612FD070B378
:1015E000B6F80E8060614FEA4828A8450CD2206802
:1015F000FFF7C7F801280146C8EB050503D9431CCE
:10160000F3D1012700E00227A161A7B9C5F30803C0
:10161000ABB13046FEF7C8FD60B100EB5520E0618C
:101620000DE009200CE0082002E0042000E0072083
:10163000074600E0022700232360384600E0002030
:101640000DB0BDE8F08F2DE9F74F984600230F4607
:10165000C8F8003001A906461446FEF7BFFD002871
:1016600040F08280707C00287ED1337CDA077AD506
:10167000F3687069181A844228BF0446002C70D0A1
:101680007369C3F30802002A48D1019AB2F80E9098
:1016900009F1FF3919EA532910D10BB9B06803E0F9
:1016A000B1693068FFF76DF8012801D8022002E027
:1016B000431C02D10120707456E0B061DDF804B023
:1016C000B1695846FEF770FD0028EFD0650A09EBB6
:1016D000000A21D0BBF80E30DBF8000009EB050250
:1016E0009A4288BFC9EB03052B465246394601F0A2
:1016F00057F80028DED10199CB795BB1886BCAEB32
:101700000000854206D94FF400723C3107EB4020BF
:1017100041F0C2FC6D0219E0C6F81CA07569F169C0
:101720000198C5F30805C5F50075A54228BF2546F3
:10173000FEF70AFE0028BDD1019973693C31C3F35D
:1017400008032A461944384641F0A6FCD8F8003070
:101750002B44C8F800307369641B2F441D44756125
:101760008CE7204600E0072003B0BDE8F08F2DE9AC
:10177000F74F9B4600238946CBF8003001A9044669
:101780001646FEF72BFD002840F0AC80607C002858
:1017900040F0A880237C9A0740F1A3806369F3425C
:1017A0004DD3DE434BE06369C3F30802002A7BD1CB
:1017B000019AD789013F17EA532743D00198E3697B
:1017C000826B9A425DD0DDF804A0A1695046FEF715
:1017D000EBFC002848D0750A07EB000856D0BAF891
:1017E0000E30DAF800007A199A4288BFDD1B2B46CA
:1017F0004246494600F0E3FF8246002838D1019F67
:10180000B96BC8EB01018D4209D94FF4007209EBA5
:10181000412107F13C0041F03FFC87F807A06D0231
:10182000DBF800302B44CBF800306369761BA94409
:101830001D44E3686561AB422CBFE360E560002EA8
:10184000B1D109E01BB9A06860B9014600E0A16907
:101850002046FFF731F828B9237C43F04003237476
:1018600000203FE0012801D1022002E0431C02D108
:101870000120607436E0A368A061002B9ED1A060B7
:101880009CE7FEF7F4FC00289DD0F1E76269E3686D
:101890009A4207D35046FEF7EAFC0028E8D1019BA4
:1018A000C3F83880C4F81C806569E1690198C5F304
:1018B0000805C5F50075B54228BF3546FEF744FD5D
:1018C0000028D5D1019863693C30C3F308032A4648
:1018D0001844494641F0E0FB019B4FF00102DA71E8
:1018E0009EE7072003B0BDE8F08FF7B501A90446D5
:1018F000FEF774FC054660BB237C5B0629D551F0DE
:10190000DDFD216A07460198FEF71EFD054600BB76
:10191000666AF37A43F02003F3722068A2683146C6
:101920000530FEF798FCE16806F11C00FEF734FC78
:10193000394606F11600FEF72FFC0198B574012315
:10194000F574C371FEF7B5FC237C23F04003054614
:101950002374284603B0F0BD13B50446FFF7C5FF56
:1019600028B901A92046FEF739FC00B9206002B071
:1019700010BD70B50E468CB000210546FEF738FD4F
:101980000446E8B90CA8314640F8305DFFF706FC84
:10199000044680B99DF92B30002B02DA029BEB61E3
:1019A0000EE09DF80630DB0609D507996879FEF749
:1019B00044FCE86104E0042808BF052400E0052495
:1019C00020460CB070BD2DE9F0470D460021D2B085
:1019D000297081469046FEF70BFD074600286ED120
:1019E000D9F81C30CDF8009002934646DDF808A0E7
:1019F000BAF1000F4DD020216846FEF71CFF0446C7
:101A0000002856D106994846FEF79EFC0446002859
:101A10004FD1079999F80500FEF70FFC2146029077
:101A20006846FEF708FF0446002842D100216846B8
:101A3000FFF796F8044600283DD1079999F805006C
:101A4000FEF7FBFB824504D10CA96846FFF706FBB5
:101A500007E021466846FFF705F804460028E5D070
:101A600029E00CAB23449A7D631C0AB11C46F8E7BD
:101A70009E421DD3321B23462A442BB1013B0CA9A5
:101A80001944897DD154F8E7E44326442F23AB550C
:101A9000ACE7464502D1013E2F23AB55AB19761B6F
:101AA00013F8012B05F8012BAA194245F8D306E0DB
:101AB0001124274603E0042C08BF0224F9E7002381
:101AC00038462B7052B0BDE8F08773B50D4601A9BA
:101AD0000446FEF783FB002876D1607C002873D192
:101AE000E368AB4204D2227C12F0020F08BF1D460D
:101AF000002263696261002D64D0019AD689760262
:101B00006BB1013B6A1EB3FBF6F1B2FBF6F28A42FF
:101B100005D3724213406361ED1AA16910E0A16818
:101B200069B92046FEF7C8FE0128014601D102200E
:101B300002E0013002D10120607445E0A160A161A2
:101B4000B9B900232CE0636933446361237C9A07AD
:101B5000A5EB060510D52046FEF7AEFE014680B186
:101B60004B1CE8D00129E2D9019B1B6A9942DED2C5
:101B7000A161B542E7D805E02068FEF702FE014604
:101B8000EEE7054663692B446361C5F30803002B48
:101B9000D7D00198FEF708FB0028C8D000EB5523EA
:101BA000E2686569954281BF227CE56042F04002AF
:101BB0002274C5F3080038B1E2699A4218BFE361A4
:101BC000002001E02B46F4E702B070BD70B5054679
:101BD00016460C4611B30021FEF70AFCD8B9256061
:101BE00031462046FFF7DAFAF0B994F92B30002B92
:101BF00007DBA379DB060DD56879E169FEF71DFBEC
:101C0000A0606B89A38000212046FEF714FE042803
:101C1000034605D105200023236070BD092070BD57
:101C2000002BF8D1184670BD0428F3D0F3E713B5A4
:101C300001A90446FEF7D2FA00B9206002B010BD37
:101C400073B50E4601A90546FEF7C8FA0446C0B9A9
:101C50000146284616B9FEF7EEFD11E0FEF780FFBB
:101C600010F0FB0F0CD131462846FFF7F7F921465B
:101C70002846FEF7F7FE042814BF0446002400E0BF
:101C80000446204602B070BD70B50E468CB00021EF
:101C900004461546FEF7ACFB0094044680B9314675
:101CA0006846FFF77BFA044650B99DF92B30002BAC
:101CB00005DB2DB129466846FFF7D0F900E0062480
:101CC00020460CB070BD2DE9F84F0F4600210446A8
:101CD000FEF78EFB0646002856D1D4F82090A36963
:101CE000A9F10202934201D83B604DE06379012BD8
:101CF00011D10225804629462046FEF742FD431CAD
:101D000035D0012835D008B908F10108236A01351A
:101D10009D42F0D330E0E16A0546804604F13C0A7A
:101D200035B9204601F1010BFEF70EFB18BB5946F1
:101D30006379022B0BD10AEB05035A781AF80530A8
:101D400053EA022308BF08F10108023509E00AEB53
:101D50000500FEF719FA20F0704008B908F10108F3
:101D60000435B9F10109C5F30805D9D104E001260C
:101D700002E0022600E00646C7F80080237AC4F895
:101D8000188043F0010323723046BDE8F88F2DE937
:101D9000F0410F4698B002210546FEF729FB0446A4
:101DA000002846D118AE394646F8605D3046FFF748
:101DB000F5F9044600283CD19DF82B309A0607D44B
:101DC0001B0605D49DF8068018F0010F30D101E004
:101DD00006242EE007996879FEF72FFA18F0100F05
:101DE000074612D0EB699F4222D021460CA80C95E1
:101DF0000E97FEF720FD0446D8B901460CA8FEF761
:101E0000AFFE0446A0B1042813D13046FEF742FFCE
:101E1000044670B927B92846FEF74BFA044608E095
:101E2000024639463046FEF7BEFD044608B9F2E7E1
:101E30000724204618B0BDE8F0812DE9F04F0E468A
:101E400091B002210546FEF7D3FA0446002840F07F
:101E5000868010AF314647F8305D3846FFF79EF96F
:101E6000044610B304287AD19DF83B3003F02003D8
:101E700003F0FF01DBB90DF1400848F8405D404632
:101E8000FEF71AFD0646A0B1012E05D0731C14D131
:101E900051F014FB012402E051F010FB0224002257
:101EA00031464046FEF77FFD59E0082457E00624FE
:101EB00055E051F003FB0724F1E751F0FFFA3146FA
:101EC00082462846FEF7A5FD04460028E7D14FF0DC
:101ED0002033EB632B64C5F843302E2385F83C3068
:101EE000102385F8473005F13C04514605F15200B6
:101EF00005F10509FEF750F9324621464846FEF73E
:101F0000AAF905F15C0321461A4651F8040B42F880
:101F1000040B9942F9D12E2385F85D30069A484684
:101F20004FF0010BFEF797F985F807B03846FEF73A
:101F300087FF04460028B2D10B9851461630FEF7B1
:101F40002BF932460B994846FEF785F90B9B102278
:101F5000DA72284685F807B0FEF7ABF9044620464A
:101F600011B0BDE8F08F2DE9F0410C46A0B0022180
:101F700006469046FEF73CFA00287FD120AF214666
:101F800047F8606D3846FFF709F9002876D19DF8CB
:101F90004B3013F0A00F64D10F9B6C4603F120056A
:101FA00018685968224603C20833AB421446F7D179
:101FB0003D460FCD14AC0FC40FCD0FC495E80F00F4
:101FC00084E80F00414614A8FFF7E8F840B90A9BDF
:101FD000169A9A424FD10C9B189A9A424BD101E023
:101FE00004284BD114A8FEF72BFF002846D11B99DB
:101FF0000DF10D0301F10D020DF11D0053F8044B1D
:1020000042F8044B8342F9D1188810809B78937072
:102010009DF80B30DA0658BF43F020030124CB7241
:10202000F471CB7ADB061ED5169B0A9A9A421AD017
:102030007079FEF702F901463046FEF7B5F8014621
:10204000D8B13046FEF780F9C0B996F85D302E2B36
:1020500009D1169A06F15C01701DFEF7FCF8F471C7
:1020600001E006200AE03846FEF714FE30B930469B
:10207000FEF71FF902E0082000E0022020B0BDE8D2
:10208000F081000070B594B0064601910221FEF780
:10209000AFF9002874D102AD4FF02033029304460B
:1020A0006B60C5F80730019B1B781F2B17D901A85F
:1020B000FEF7B3F8B0F5803F01D3062060E054F09E
:1020C000B3F940F2B51154F07BF90028F5D02D4A50
:1020D00012F8013F002B40D09842F9D1EDE79DF86E
:1020E0000830E52BE9D02CB1631EEA5C202A01D12F
:1020F0001C46F8E7002108A808960A91FEF79BFB0A
:1021000000283DD1012108A8FEF72AFD20B90F9A29
:102110009CB9E523137018E0042831D1DCB101210A
:1021200008A8FEF7FAFC58BB202201460F9840F0A1
:10213000F7FF0F9B0822DA720F9A2B4603CB106031
:10214000516019889B78937211810123F371304695
:10215000FEF7AFF814E0204612E0FF2807D80A2C5B
:10216000ABD814AB2344013403F8480C9BE7092C8B
:10217000A3D814AB2344020A03F8482C0134F0E737
:1021800014B070BD1D1D09082DE9F04FD0F8008076
:102190008FB01C46002343710391037902931646C6
:1021A00005210DF12F024046189D00F01DFB9DF802
:1021B0002F30DA0700F1D6825F0700F1D5820CAA32
:1021C0000321404600F010FB30B90C9A531EB3F5C2
:1021D000004F01D21A4201D001230C9336B1A04B1B
:1021E000A6F500729A4201D91320D0E2721E324045
:1021F000FAD1002C00F0BA826B0A059300F0B68287
:10220000029B33B301232146404600F0C9FA00285F
:1022100040F0A98194F8FF2194F8FE3143EA0223AB
:102220004AF65522934201D00E20B0E2029B04EB05
:10223000031101F5D7710B79002BF5D001F10800DE
:10224000FDF7A2FF834601F10C00FDF79DFF0D9005
:1022500015E00DAA0121404600F0C6FA002840F022
:102260008281039B13F0080F0D9B0CBF4FF03F0BB7
:102270004FF0000B9B45D7D8CBEB03030D93DDF854
:102280003490B9F1150FCFD9720A802AACD8039BCC
:1022900003F0020303F0FF0C3BB1039B03F00703C1
:1022A000022B07D0039BD80704D5039BD9079BD5E6
:1022B000022700E003274FEA193306930C9B591EAF
:1022C0005B420793032F4FEA5943089109934FF656
:1022D000F57E74D14AB96349012631F8023F2BB12A
:1022E000099D9D4202D37600F7E71646B9FBF6F347
:1022F0005D499D00A3F57F43F63B05F207258B4220
:102300004FEA552590D8002301934FF0200A20E092
:10231000069D9D4204D3760031F8023F002BF7D191
:1023200040F6F573B9FBF6F59D429BBF05EB4505FD
:10233000013502356D088CBF6D00033505F2FF15C0
:102340004FF020038CBF022701276D0A01934FF045
:10235000010A0BEB0A030093019B00990798EB1805
:102360000B440899032F194401EA000108BF0098A3
:10237000A1EB030101BF40188A440146009118BF38
:102380006D18CBEB06110B449945FFF44DAFCAEB2A
:10239000090301995B1B032FA3EB0103B3FBF6F3C6
:1023A000049312D0022F26D1049B734516D9002A1C
:1023B00040F0E7817600402E00F2DA81324612B911
:1023C0002A490126A8E71646AAE773451AD8002A23
:1023D0007FF42AAF72083FF427AF7BE7049B40F6F7
:1023E000F5718B420ED8002A7FF41EAF7200802A4E
:1023F0003FF61AAFE3E7049A40F6F5739A423FF6C8
:1024000013AF01274FF400720021204640F088FEF0
:10241000174B84F80EA01A6822605A6862601A8905
:102420009B7A2281032F4FF00202A3724FF0000328
:10243000E3722273CAF3072A4FF00102637418BFD4
:102440000223B9F5803F667384F80FA02274A37449
:1024500010D284F81390C9F3072984F814900EE081
:1024600000FEFF000A1E0908FFFFFE0F0E1D0908EF
:102470004A1D0908494604F12000FDF78DFEF823A6
:1024800063753F2323764FF00009FF2384F81990EA
:10249000A37684F81B90594604F11C00FDF77CFEDE
:1024A000032F30D151F00AF8014604F14300FDF743
:1024B00073FE294604F12400FDF76EFE022384F822
:1024C0002C30012384F83030062384F83230802306
:1024D00084F84030292384F84230AE4B84F82D90A4
:1024E00084F82E9084F82F9084F8319084F83390FB
:1024F00004F1470203F1100153F8040B42F8040BF6
:102500008B42F9D11BE050F0D9FF014604F12700BE
:10251000FDF742FEC5F30723E375802384F82430DA
:10252000292384F826309C4BA57504F12B0203F176
:10253000100153F8040B42F8040B8B42F9D11988AF
:102540009B7893704FF0AA0A4FF0550311804046D4
:1025500084F8FE3184F8FFA101235A46214600F099
:102560002EF9814608B1012011E1032F3FD101234B
:102570000BF106022146404600F021F94FF40072AB
:102580004946204640F0CCFD5223237063706123FE
:10259000A37084F8E731049B41227221E27084F831
:1025A000E41184F8E51184F8E621591E04F5F4706D
:1025B000FDF7F2FD022384F8EC314FF0550384F867
:1025C000FE310BF107020123214684F8ED9184F8D6
:1025D000EE9184F8EF9184F8FFA1404600F0EFF807
:1025E00001230BEB03022146404600F0E8F8059B6F
:1025F00000215A02204640F093FD032F0FD1F8230B
:102600002370FF236370A370E37023716371A37160
:10261000E37123726372A3720F23E37207E0012F49
:102620005E49204618BF6FF00701FDF7B5FD059B19
:10263000009AAB4228BF2B4621464046994600F0FF
:10264000BEF8014600288ED14FF40072204640F0BB
:1026500067FD009BB5EB09054B440093E7D1019B57
:10266000032F08BF33460193019B059A934228BF6D
:1026700013462146009A40461D4600F0A0F8002867
:102680007FF471AF009B2B440093019B5B1B019374
:10269000EAD1032F08D00D9BB3F5803F06D2022F5D
:1026A00014BF0125042502E00C2500E00625029B4D
:1026B00083B1002201232146404600F071F8024612
:1026C00000287FF450AF029B04EB031383F8B25150
:1026D000012340E0039B1B0708D50022114640461A
:1026E00000F082F8003018BF012050E04FF4007273
:1026F0000299204640F014FD552384F8FE310D9ACE
:1027000084F8C251AA2384F8FF319DF8083084F878
:10271000BE3184F8C1315A4443F6C163B2FBF3F2CF
:10272000FE2384F8C331930843F03F03012684F865
:10273000C43184F8C521594604F5E37084F8BF61BB
:1027400084F8C061FDF728FD0D9904F5E570FDF7EB
:1027500023FD029A33462146404600F030F8002817
:10276000BBD000E7032012E00A2010E011200EE0A9
:10277000BCF1000F01D00327ADE5802E3FF654AD2C
:102780001CE6BCF1000F3FF44FAD0327A2E50FB0EC
:10279000BDE8F08F561D09086A1D0908F8FFFF0003
:1027A00010B50C4611461A4638B1234604303CF0A9
:1027B00017FF003018BF012010BD042010BD10B558
:1027C0000C4611461A4650B1234604303CF030FF07
:1027D00010F11E0F05D0003018BF012010BD0420DD
:1027E00010BD022010BD000070B50D46144606460F
:1027F000002832D001F00703234AD15C002930D0F1
:10280000002204303CF042FF062D26D8DFE805F018
:10281000270509152518180006202AF077FF2060E3
:102820001DE0062803D14FF40073238002E02AF054
:102830006DFF20802388B36011E0012323600EE048
:10284000062801D0430805D1336A002B0CBF0423AE
:10285000002300E00123237001E0042070BD00206C
:1028600070BD062DF9D801A353F825F05F280008A4
:1028700019280008272800083B2800085B280008C2
:102880004928000849280008041A0708086833F096
:10289000FABA000037B51C46043001AB1546FEF706
:1028A00066FF10B1054B1B5C03E00198854203D025
:1028B0001C2323604FF0FF3003B030BDC01A07085F
:1028C00013B51C46043001ABFEF7BDFE28B1044B26
:1028D0001B5C23604FF0FF3000E0019802B010BD98
:1028E000C01A07082DE9F8438146506890460F4604
:1028F00030F05AFE254A0138002410F8013F0BB38E
:10290000722B13D008D8612B19D0622B0CD02B2B33
:10291000F3D144F00304F0E7772B0AD0782B0BD0E7
:10292000742B08BF1746E8E7194FE6E744F00104A7
:10293000E3E744F00A04E0E744F00604DDE744F08E
:102940001204DAE72C201DF0BBFB0646054646F8CC
:10295000047BD8F8000030F027FEE3B2024631468F
:1029600009F14400FEF7A4FD074630B128461DF0EA
:10297000C1FB084BD85D2AF089F8E30603D5296925
:102980003046FFF7A2F82846BDE8F883241A070866
:10299000E41A0708C01A070830B587B0054603AC2B
:1029A000084611461A46064B0093019403232AF069
:1029B00081FB224629460020FFF794FF07B030BD77
:1029C0000C1A07081FB506230191029203490393CD
:1029D00001AAFFF787FF05B05DF804FB241A07087A
:1029E00070B5054608460C462AF00CFE2346024602
:1029F00002492846BDE8704000F0C6BF201B07080A
:102A0000022970B5044615461E4612D15368012BA3
:102A100004D0022B04D04BB9116804E0816900E0B6
:102A200001692B681944201DFFF74FF8A3692B603B
:102A300005E0012905D10430FEF757FF50B9002009
:102A400070BD042909D14368002BF8D00430FEF78B
:102A500083FFF3E7034B1B5C00E0162333604FF06A
:102A6000FF3070BDC01A07082DE9F74F06299DF801
:102A700030500DD8012903D93F230370013000E005
:102A800009B100230370012994BF002001200CE24A
:102A900010EE104A002C0ADAB4EE400AF1EE10FAF9
:102AA00005D62D25441C0570B1EE400A04E015B191
:102AB000441C057000E004469FEDC47A0190F0EEDE
:102AC000C07AF4EE477A02F0200CF1EE10FA5FFAC9
:102AD0008CF50ADD85F04903237085F04E0385F0FF
:102AE00046056370E11CA5700DE0B4EE400AF1EEFE
:102AF00010FA0CD785F04E03DBB285F04105237048
:102B00006570E11CA37000230B70081ACDE1002B47
:102B100042F02002B8BF0623672A02D1002B08BF6B
:102B20000123251A0139491B10EE105A002D18D126
:102B3000662A0AD15D1CA942D8BF8B1E00276621D8
:102B40005E1C0091BE463D46D4E05D1DA942D8BF43
:102B50008B1F652A00924FF0000640F0BD802B27A6
:102B6000BBE0B5F17E5F68D2DFED997ADFF868E20D
:102B7000DFF86892B4EEE70AF1EE10FA4FF00006C3
:102B8000ACBF4FF031084FF0300820273546BEEC7F
:102B9000017AB4EEC07AF1EE10FAC4BF09EB060A6E
:102BA0009AED007A06F10406C4BFED1920EE070A7B
:102BB000182E4FEA6707EAD110EE106AB6F17E5F71
:102BC00010D2B4EEE70AF1EE10FA06DB002D14BFC6
:102BD0002D272B27B7EE000A05E0F2EE047A20EE4F
:102BE000270A01352D27662A03D0672A1DD1042D17
:102BF0001BDC672A04BF05F1FF369B195E1CB1423E
:102C0000D8BF8B1E84F80080002B00F039812E2164
:102C100061701E4602343021013D61D01EB104F8BE
:102C2000011B013EF8E737465BE04E1FB342C0F29E
:102C30002E81672A5AD08B1F59E00026DFF89CE1CD
:102C4000DFF8948120273546FEEC017AF4EEC07A55
:102C5000F1EE10FA9CBF08EB0609D9ED007A06F1F7
:102C600004069CBFED1920EE270A182E4FEA6707CD
:102C7000EAD1FDEEC07A17EE906A092EC2BFDFEDF1
:102C8000557A013520EE270A662A0AD18D420ADAE2
:102C90005E190136B1421ADC491B8B1E17D54B1E3B
:102CA00015E0652A08D14E1FB34226DB00268B1F94
:102CB0002B27B646652117E0672A24D11E1DB14295
:102CC00000DC4B1F9D4280F2D680691C5B1AEE1817
:102CD0000136AE46002706E03746B646354609E0DF
:102CE0002F464FF0FF3E6621009103E033460092ED
:102CF0000026B64623EAE37309E065212B274FF04F
:102D0000000E009106E0002600922B27B64600999F
:102D1000652901D15E1C07E00099672904D113B928
:102D20000126334600E01E464FF000084FF02E0A01
:102D3000B2EE047A464521DDFDEEC07A04F10109C8
:102D400017EE901A0029ABBF17EE901A302101F14F
:102D5000300B2170A8BF84F800B0F0454C4604D178
:102D60001BB189F800A009F10104F8EEE77A08F137
:102D7000010830EE670A20EE070ADBE7662A03D176
:102D8000AE4280F289805DE0F1EE047AB4EEE70AAB
:102D9000F1EE10FA49DB661E4FF03009B04618F824
:102DA00001E9BEF12E0F01D14646F7E7AEF1300A38
:102DB000BAF1090F01D9701C16E0BEF1390F0FD01E
:102DC0000EF1010E86F800E030460DE0FFFF7F7F38
:102DD000F8FF7F3FCDCCCC3D10BF0608F8BE0608FB
:102DE000B04288F80190DFD10678302E1DD190F8DE
:102DF00001E0BEF12E0F0DD1009966290AD02D2FCA
:102E000080F800E0467003D1013D08BF2B2702E0A7
:102E1000013500E001342146884204D211F8016CEA
:102E200001F80169F8E731210170672A0AD14BB135
:102E300023461C46013B14F8012C302AF9D02E2AD7
:102E400008BF1C4697B10A2195FBF1F393FBF1F201
:102E500001FB135501FB12324CF0450C303230357A
:102E600084F800C06770A270E570043400232370FA
:102E7000019BE01A19E06721009100262B2738E713
:102E8000662101341F464FF0FF3E009102E00092A0
:102E90004FF0000E00263AE7F1EE047AB4EEE70AAE
:102EA000F1EE10FABFF677AFCCE703B0BDE8F08FD4
:102EB00008B5044631B1054B03604A6C096800232C
:102EC0002CF0AAFC20461DF0C7F800BFD8CC06089D
:102ED0002DE9FF471F46019246180AB905460BE047
:102EE000023A222AFAD9394829F0E0FB2078013544
:102EF0001EF0FEF9002857D0B5422C46F6D34FF00D
:102F00000008311B204601AA28F09DF80444A14680
:102F10000025B1454B461ED219F8012BA2F1300A0B
:102F2000BAF1090F09D95F2AF3D042F02002A2F1C9
:102F3000610119290FD8A2F1570A01998A450AD2CD
:102F4000284636F04FFFE0B9019B03FB05A595EA43
:102F50004503DED515E0B8F1000F00D06D426D00DD
:102F600045F00105A34217D01C46B442234606D2C1
:102F7000187801341EF0BCF90028F6D10CE021D0FD
:102F80000AE004A8019B40F8044D4246311B2DF095
:102F9000FBFD039B0546E5E70D49019A0D482CF022
:102FA000FFFB3946FFF784FF23782B2B02D12C46F9
:102FB0008046A6E72D2B0ABF2C464FF000084FF0A5
:102FC00001089EE7284604B0BDE8F08728BF060840
:102FD0003DBF0608ACCA06082DE9F04F2DED028B67
:102FE00085B04718DDF84080029203930546BD4244
:102FF0002C4606D2207801351EF07AF90028F6D149
:1030000065E000260023DFED9A8A9FED9A7ADFF8CB
:103010007CA20193254699461946F2EE046A4FF0C8
:103020000A0BBD4250D295F800E0AEF1300CBCF175
:10303000090F05F101001CD8022906D1019A524559
:1030400040DC0BFB02C201923CE0F4EEC78AF1EED9
:1030500010FA0BD507EE90CAF8EEE77A0129E8EEF0
:10306000A67AF0EE678A2DD1013B2BE051BB0133EC
:1030700028E019B9BEF12E0F02D122E0022915D0A5
:103080004EF0200CBCF1650F10D1874209D9697848
:103090002B2901D1A81C04E02D2904BFA81C4FF046
:1030A0000109B84200F0A98002210BE0029A22B186
:1030B0004EF0200CBCF16A0F1AD0BEF15F0F1BD18D
:1030C00000E001210546ACE720462C460DE02378C0
:1030D0002B2B40F099802C460646BD423BD3002363
:1030E000DFED638A0193284699462546044603E0AE
:1030F00005464FF0010A01E04FF0000AB9F1000F58
:1031000002D0019A52420192019A134413F1250F01
:10311000BCBF2533DFED587A03F10902B8BF68EE72
:10312000A78A082A0BD85B4200EE903AB2EE040A56
:10313000F8EEE00A3DF018F888EE808A25E007EE08
:10314000903AB2EE040AF8EEE70A3DF00DF828EEE8
:10315000808A1AE00646237843F02003692B16D0B4
:103160006E2B7FF44FAFA31C9F4213D9637843F0BB
:103170002003612B0ED1A37843F020036E2B09D1DD
:103180009FED3E8AE51C4FF0000A5EB108E0A31CEB
:103190009F423ED88EB39FED368A25464FF0000AF7
:1031A000B1EE488AA54228D0BD422B4606D21878F7
:1031B00001351EF09DF80028F6D11EE01DD1BAF1B0
:1031C000000F04D0F0EE480A9FED290A05E0039BAA
:1031D00053B1DFED270AB0EE480A05B0BDEC028B13
:1031E000BDE8F04F2BF0D6BAB0EE480A05B0BDEC02
:1031F000028BBDE8F04F2CF01BBC214921482CF07C
:1032000043FA4146FFF754FE2D2BA3D12C4601264D
:1032100063E7637843F020036E2BBBD1A37843F0C0
:103220002003662BB6D1E31D9F4204F103051AD992
:10323000E37843F02003692B15D1237943F0200371
:103240006E2B10D1637943F02003692B0BD1A37946
:1032500043F02003742B06D1E37943F02003792B4C
:1032600001D104F108054FF0000A9FED078A8CE7B1
:1032700000000000EC78AD60EA1C08020000C07F8E
:1032800049BF0608ACCA06080000807F646666066F
:103290000846114640F0B6BD70B5054608460E46D4
:1032A0003FF06CFF044620B102466B682868314647
:1032B0009847204670BD00002DE9F74F0D9C019105
:1032C0009146A41A9DF8302012F0DF0F064609D06F
:1032D000302A0CAA244F0EBF4FF0100817464FF0AB
:1032E000010802E0214F4FF0100813F0800205D0D2
:1032F000022394FBF3F3E51A1C4602E013F00105E8
:1033000011D1002C12DDA246D045C346A8BFD3463A
:10331000736830685A463946CBEB0A0A9847BAF1C7
:10332000000FF1DC03E02546144600E00024B9F16B
:10333000000F05D07368019930684A4698474C449D
:10334000002D0DDD2C44A845C146A8BFA9467368D1
:1033500030684A463946C9EB05059847002DF2DC2E
:10336000204603B0BDE8F08F4FAF060860AF0608F7
:103370002DE9F04389B08046119E9DF84890139F37
:103380000AB900220DE0002904DA2D228DF80F2061
:1033900049420EE0B00701D52B2202E07207F0D5BA
:1033A00020228DF80F2021B908AC302304F8013D0C
:1033B00014E0109A08ACA2F10A050DF1100EB1FB51
:1033C000F3F003FB1012092ACCBF5219303204F873
:1033D000012D7445014601D00028F0D116F04003BC
:1033E0009DF80F500DD0ADB101220192CDF80090A3
:1033F00033460DF10F014046FFF75EFF013F0546E2
:1034000008E03DB104AA944284BF04F8015C04F1D1
:10341000FF341D4608AA0197CDF800903346121BD1
:1034200021464046FFF748FF284409B0BDE8F08335
:103430002DE9F04F91B011F0010F824689461A9D97
:103440009DF86CB01C9EDDF8748010D111F0030F54
:1034500003D109687F48814209D048460593049208
:103460002AF054F9059B049A400040F0010915F038
:10347000810106D1BBF1300F03D14645B8BF4646A6
:1034800088464846059304922DF092FA0028049A43
:10349000059B08A80BDBAF0701D52B2102E06C07C9
:1034A00005D520218DF820100DF1210400E00446FF
:1034B000E9061ED5022A05D12146302701F8027BF4
:1034C0005F1C14E0082A0AD1AF054FF030012170CB
:1034D00045BF03F10E0161700134023409E0102A86
:1034E00007D12146302701F8027B03F117076770E7
:1034F0000C46002115F0200F2170A4EB0004049469
:103500000CAF0CBF0C462C24B8F1010F0997C8BFB3
:1035100045F0400510270A97DBB215F040070B91E4
:103520008DF81F100394029314D000238DE80C0033
:103530000AA94B460BAA09A82DF014F903782D2BE4
:10354000814618D18DF81F300B9B013B00F101091A
:103550000B9310E0019000924B460BAA0AA909A810
:103560002DF000F9B8F1010F81466DDD0B9C44454B
:10357000B8BF44460CE0B8F1010F64DD0B9C9DF828
:103580001F304445B8BF444603B10134049B1C447A
:10359000A64209DD05F00103002BA6EB040416BFCB
:1035A00027460027002401E000273C4625F00105BE
:1035B0004CB120230093002301941A46264950461B
:1035C000FFF77AFE04464FF0300B69061BD59DF8D5
:1035D0001F3053B101220023019200930DF11F010E
:1035E0005046FFF769FE013E0444049B5BB1012392
:1035F000019300230093049A08A95046FFF75CFE4C
:10360000049B0444F61AB8F1010FC8BF4646019660
:10361000CDF800B02B460B9A49465046FFF74CFEBA
:1036200004444FB120230093002301971A460A490E
:103630005046FFF741FE044409980CAB984205D070
:103640001CF058FD02E000273C46BEE7204611B0C2
:10365000BDE8F08F74D50608C64809082DE9F04387
:1036600016468BB0B20780469946129F05D416F0D5
:10367000040F0CBF0023202300E02B2300930A46F5
:10368000139B202102A8FFF7EFF9F30505460DD59E
:10369000431C1F2B0AD80AAA1544252205F8202C02
:1036A0000AAA1A44002102F8201C1D4616F0400404
:1036B00012D09DF808302F2B4FF000030ED80122B6
:1036C00002A9019200934046FFF7F6FD013F044630
:1036D000013D0DF1090103E002A901E002A91C4628
:1036E0000197CDF8009033462A464046FFF7E4FDA7
:1036F00020440BB0BDE8F0832DE9F04F814689B03E
:10370000144600260D462B4613F8012B5AB9A94240
:103710000DD26F1AD9F80430D9F800003A4698470C
:103720003E44294603E0252AF1D01D46EBE70B78FD
:10373000002B00F02081013120224FF0000B0B788C
:103740000D46481CF3B12D2B02D14BF0010B17E0B5
:103750002B2B02D14BF0020B12E0202B02D14BF0AD
:10376000040B0DE0212B02D14BF0080B08E0302BAD
:1037700003D04FF000080A2706E04BF0400B1A4632
:103780000146DCE798462CE00D4611F8013BA3F119
:103790003000092804D807FB0838A8F13008F3E7FF
:1037A0002E2B1ED16B782A2B04D0084600234FF015
:1037B0000A0E07E02368002B05F1020504F104015D
:1037C00012DB0CE00178A1F13007092F054600F16A
:1037D000010003D80EFB0313303BF3E721460C46F0
:1037E00004E04FF0FF3301E00C46002329786C29F8
:1037F00008BF01352F78002F00F0BD80642F67D0FF
:103800000FD8502F00F0828005D8A7F1450102297A
:1038100040F28C80A3E0622F12D023D8582F63D0BF
:103820009DE0712F29D004D8672F7FD9702F6DD0DC
:1038300095E0752F58D0782F56D0732F33D08EE067
:10384000236804F1040A8DE804011BB15B460422DD
:103850004B4902E04B495B4605224846FFF72CFDE9
:10386000064485E008A9236801F8043D04F1040A30
:103870008DE804015B460122EFE707A92068059364
:1038800004921DF00CFB059B049A0146581C04F1A0
:10389000040A03D00798834238BF07938DE80401D8
:1038A0005B46079AD9E704F1040A24680593204689
:1038B00004923FF063FC059B5A1C049A02D0984284
:1038C00028BF18468DE804015B4602462146C4E73E
:1038D00061230292009304F1040ACDF80C80CDF824
:1038E00004B00A2301221CE07B1C27F00F070F3FC6
:1038F00003F00603FFB204F1040ACDF80C80029233
:10390000CDF804B00097C3F1100309E061230093E0
:1039100004F1040ACDF80C800292CDF804B0102313
:10392000002221684846FFF723FD99E7073424F079
:103930000704D4E900010593049261F049FD049A5B
:10394000059B019300EE100A1346CDF800805A46FD
:103950003946484604F1080AFFF780FE80E7D9F8A7
:103960000430D9F800000122294698470136A246C2
:10397000691C5446C6E6304609B0BDE8F08F00BF6A
:1039800044AF060849AF06080EB403B503AA52F8BF
:10399000041B0192FFF7B0FE02B05DF804EB03B028
:0439A000704700006C
:020000040802F0
:10000000034B1B685B685A690260586100207047A7
:10001000E4330020034B1B685B685A6912685A611D
:10002000704700BFE4330020C4600561466187610A
:10003000C0F81C80C0F82090C0F824A0C0F828B0F8
:10004000C0F82CD080ED0C8B80ED0E9B80ED10ABBA
:10005000C0F808E0FFF7D4BF08B5114B1B685A6819
:1000600053690BB92BF012F81968586051611846A2
:10007000C468056946698769D0F81C80D0F820906B
:10008000D0F824A0D0F828B0D0F82CD090ED0C8B6C
:1000900090ED0E9B90ED10ABD0F808E0012070477A
:1000A000E433002010B50021044600F091FA18B99D
:1000B00014B120460CF0E6FA10BD002100F088BA19
:1000C00010B50121044600F083FA18B914B1204696
:1000D0000CF0D8FA10BDFFF7E5BF10B501220C46B1
:1000E00000F0C0FB18B914B120460CF0CBFA10BDDB
:1000F00000F0B8BB00F042BB2DE9F0472B4C0025C7
:1001000026464FF0030AD4F888E200210131431853
:100110009A0803F003031EF802205B0042FA03F37F
:1001200003F00303022BF1D0D4F8943209018A08BA
:1001300003EB001001B3043850F8041F0B0719D16A
:10014000D4F89432994215D3CB1AD6F898724FEA64
:10015000931C1B0903F0030EB9424FEA4E0E09D25D
:10016000D6F8889219F80C8048FA0EF101F00301D4
:10017000012908D0013ADFD1ADB1013D05F5A873E1
:1001800034F81300BFE70AFA0EFE4EEA080E05F532
:10019000A8783F2D09F80CE09ABF013526F81830F1
:1001A000C6F89C12E6E7BDE8F08700BFA42C00204B
:1001B000F8B521F00F031C1A174A184DE400A2FBF2
:1001C0000424640A0119A3EB84172246C5F890128F
:1001D0000021C5F89832C5F88C42C5F88802C5F8E8
:1001E000947222F09DFFA2000732D2080021D5F8B8
:1001F000900222F095FF0A4B1B68586801210023EA
:100200004FF0FF32C5F82C330381C5F82433A5F82D
:100210002013C5F82823F8BDF32C23FAA42C0020C2
:10022000E4330020034B1B685A68138901331381A0
:10023000704700BFE4330020034B1B685A681389E2
:10024000013B1381704700BFE4330020034B1B6860
:100250005B681889003018BF01207047E433002024
:100260001F4B1B6859680B892DE9F0411D4E002278
:1002700001330B8106F10804C6F82423C6F89C223A
:1002800006F5F27537464FF0030854F8043F1A0795
:1002900019D1D6F89402834215D3181AD7F89812B8
:1002A0004FEA901E000900F003028B424FEA42021F
:1002B00009D2D7F888C21CF80E1041FA02F303F0F5
:1002C0000303012B03D0A542DFD1BDE8F08108FA7A
:1002D00002F20A430CF80E20FFF70EFFF3E700BF0F
:1002E000E4330020A42C002099B32DE9F041194FEC
:1002F0000E46051F00244FF0030855F8043F1A0767
:1003000004F1010419D1D7F89402984215D8181AAB
:10031000D7F898124FEA901E000900F003029942A4
:100320004FEA420209D9D7F888C21CF80E1041FAE8
:1003300002F303F00303012B03D0A642DDD1BDE895
:10034000F08108FA02F20A430CF80E20FFF7D4FEFF
:10035000F3E77047A42C00202DE9F04F534ED6F858
:100360008C02D6F89C3283B080003446002513B34B
:10037000C6F89C52002842D0002702E0013787428D
:1003800015D2BA08D6F8881207F003038A5C5B001E
:1003900042FA03F303F00303032BEFD13846FFF7D0
:1003A000ABFED4F88C02013780008742E9D3D6F83F
:1003B0009C32002BDCD110B39C46DFF8F0801D4648
:1003C0004FF0030A06E0032B63D0012B23D0013545
:1003D000854214D2AF08D6F8882205F00304D15D17
:1003E000640041FA04F303F00303022B02EB070E4F
:1003F000E9D1BCF1000F40D101358542EAD32C4B45
:100400001B685A6813890021013BC6F82C1313811D
:1004100003B0BDE8F08F4FEAD50BD8F8902212F860
:100420000BC005F007094CFA09F0C3075A4424D55C
:100430002901D8F894024358084493B16A46B1217F
:100440000BF014FB009A3AB10CF062FB9DE803003C
:100450000CF02EFB0CF072FBD6F8902212F80BC0B9
:100460005A44012303FA09F32CEA030C82F800C072
:10047000D6F88832D95D03EB070E0AFA04F421EAB4
:1004800004018EF80010D6F88C024FF0010C8000A9
:100490009DE7022303FA04F421EA0401D155D8F8B8
:1004A0008C024FF0000C984091E700BFA42C002074
:1004B000E4330020054B06491B685A681389013351
:1004C00013810023C1F89C32FFF746BFE4330020BC
:1004D000A42C00203D4BD3F89412D3F898222DE998
:1004E000F047D3F88C62D3F88872521A0023026066
:1004F0001D46B60043608360C3600361436183614E
:100500009C469E461C461A4699461946984617F838
:1005100009904B0049FA03F303F00303012B30D099
:1005200027D3022B02D10135456001340132B2429A
:100530000ED04FEA920902F0030117F809304FEA92
:10054000410A43FA0AF313F0030301D0012BDED171
:10055000012C1AD0022C2BD081698C4288BF846177
:10056000B2421BD0012B27D04FEA920902F00301BF
:10057000CDE70CF1010CC0F808C00EF1010E00240B
:10058000D4E7013545601C46D0E7016901310161BE
:1005900081698C4288BF8461B242E3D1C6450ED9DD
:1005A000B242C0F80CE00AD0F0464FF0000EDBE794
:1005B000416901314161CFE7F045F6D2F0E72D0105
:1005C0004FEA0C1345608360BDE8F087A42C00203F
:1005D0000F302DE9F84F060900F0C980654B1B6804
:1005E0005B681B89002B40F0C280634DB5F8203357
:1005F000002B01F001040CBF4FF0010C4FF0000C78
:1006000049D1DFF87481D5F82C13D5F88C72B94232
:1006100039D2D8F888E200230EEB01001AE001334A
:10062000B34243D212F00C0F1ED10133B34280F01B
:10063000958012F0300F1CD10133B34280F09180CD
:1006400012F0C00F1AD10133B34280F08D80013116
:10065000B94218D210F8012B12F0030FDFD012F0BC
:100660000C0F4FF00003E0D012F0300F4FF00003FA
:10067000E2D012F0C00F4FF00003E4D00131B942D4
:100680004FF00003E6D3BCF1000F70D12FF0E8FD6E
:100690004FF0010CB7E7D5F82423D5F828339A4258
:1006A000AFD32FF0DDFD4FF0010CAAE78900C81A87
:1006B000012B01F1010C00F1010704BF4FEA9C037B
:1006C000C5F82C33BB0807F003021EF803804FEA7D
:1006D0004209012202FA09F2023042EA080281428A
:1006E0000EF8032028BF4FF0020811D34FEA900EF6
:1006F000D5F8882200F0030312F80E905B0008FA88
:1007000003F3013043EA0903814202F80E30EDD2CF
:10071000D5F894A2D5F82433DFF85C904FEA071897
:10072000C7EB0C020AEB080B1E44120158460021CD
:10073000C5F8246322F0F4FC6CB10023D9F89002D0
:100740004AF80830F9080122435C07F0070702FA6B
:1007500007F71F4347545846BDE8F88F8900013119
:10076000A5E789000231A2E7890003319FE7002055
:10077000BDE8F88FE4330020A42C00201D4B1B683B
:100780005B681B89A3BB98B3F0B41B4ED6F89432B8
:10079000D6F89052C01AC10904096A5C04F0070730
:1007A0000123BB4022EA03036B54D6F82C33D6F85E
:1007B00088528009984238BFC6F82C03A00804F07C
:1007C0000303295C03275B0007FA03F321EA030311
:1007D0002B540134D6F88852A00804F00303295C96
:1007E0005A0041FA02F202F00302022AEBD0F0BCF6
:1007F000704700BFE4330020A42C0020034610F013
:100800000F002AD1164AD2F894128B4215D310B495
:10081000D2F89842A3420ED25B1AD2F888429A09C3
:100820001909A25C01F003035B0042FA03F303F031
:100830000303012B02D05DF8044B704701300B1805
:100840009A0803F00303A25C5B0042FA03F303F08F
:100850000303022BF2D00001EDE70020704700BF38
:10086000A42C00208C46002800F013812DE9F84FBD
:100870008B4B1B685B68002958D01F89002F40F004
:100880008980884DD5F89412D5F88C32C1EB0009D7
:100890004FEA1916711C4FEA830A0CF10F0E8A45B4
:1008A0004FEA1E1E40F2F980D5F888B24FF00108D9
:1008B0008C0801F003031BF804405B0044FA03F3C7
:1008C00003F00303022B00F087802BB9013707EBFD
:1008D00008039E4500F28280F0457BD000F28380C1
:1008E0004744BE450446604657D808EB06017644A7
:1008F000B14238BF4FF0020C0DD28808D5F888728B
:1009000001F003033A5C5B000CFA03F3013113437B
:10091000B1423B54F1D1C8EB0E02120104EB0810B6
:10092000002122F0FDFB2046BDE8F88F1B898BBB20
:100930005C4DD5F89412D5F89062401AC1090409AB
:10094000725C04F007070123BB4022EA03037354DF
:10095000D5F82C33D5F888628009984238BFC5F89D
:100960002C03A00804F00303315C03275B0007FAA3
:1009700003F321EA030333540134D5F88862A00855
:1009800004F00303315C5A0041FA02F202F0030260
:10099000022AEBD00020BDE8F88F4FEAD911D5F834
:1009A0009032404F595C06F007063141002AF1D0E1
:1009B00001F00101FFF70CFE06460028EAD04FEADD
:1009C0000812214622F068FB354B1B685B681B89C7
:1009D00043B33046BDE8F88F08F1010801318A457C
:1009E0007FF466AF78E7B644B04474464FF0030C2A
:1009F000A108D5F888722B4E7A5C04F003035B00E3
:100A00000CFA03F3013422EA030344457B54EFD18B
:100A1000D6F82C234FEA9E039342DBD2C6F82C3340
:100A2000BDE8F88FD7F89402D7F890E2201AC109F0
:100A300004091EF8013004F0070C012202FA0CF23E
:100A400023EA02030EF80130D7F82C3380099842CC
:100A500038BFC7F82C03D5F88872A00804F0030348
:100A6000395C4FF0030E5B000EFA03F321EA030337
:100A70003B540134D5F88872A00804F00303395CB4
:100A80005A0041FA02F202F00302022AEBD0304689
:100A9000A0E701466046FFF79BBD4FF001081BE74A
:100AA000E4330020A42C002010B58AB003A80B4C1E
:100AB000FFF710FD0599049B039A00912046084911
:100AC000E2F762FF06A80DC809990190009120463F
:100AD0000449E2F759FF0AB010BD00BF3CAF060859
:100AE00088570608AC5706082DE9F041544F554980
:100AF000D7F894225448E2F747FFD7F88C128900C0
:100B000018BF00251FD181E005F0030676004FEAEB
:100B10009508D7F888324A4A13F8083043FA06F69F
:100B200006F00306022E6FD0032E6BD0012E44D0A8
:100B30002E2246494448E2F727FFD7F88C120135A8
:100B40008900A94262D9A806DED18D426CD2D7F8BD
:100B500088024FEA950805F0030610F80830760081
:100B600033419A0721D12C4604E0825C42FA03F318
:100B70009B0708D1013404F003038C424FEA94022E
:100B80004FEA4303F1D3621B7F2A0ED99209304901
:100B90002D48E2F7F9FED7F88C3224F03F05B5EB8B
:100BA000830F33D24FEA950800262A4A2A4926485D
:100BB0002B011A40E2F7E8FEABE7D2F89412274A7D
:100BC0002B01CB58934229D0254A934228D0254A5D
:100BD00093422FD0244A93421ED0244A93421BD0E2
:100BE000234A93421ED0234A93421BD0224A934267
:100BF00022D0224A934221D0214A934214BF682234
:100C00004D2296E76D2294E73D2292E71D490E485A
:100C1000BDE8F041E2F740BB53228AE7542288E75F
:100C20004C2286E7412284E705F0030676004FEA6E
:100C30009508BAE744227CE746227AE7422278E721
:100C4000A42C0020F45706083CAF060838580608C4
:100C500014580608F0FF0F0030580608F0E50608A3
:100C600038D6060828C8060840E30608FCE206084D
:100C700064C5060828C506085CD10608DCD206084B
:100C800094D7060810580608054B1B6A5A6882421A
:100C900001D91B68FAE7801A043053F82000704726
:100CA000A42C0020014441F20553884205D210F8DB
:100CB000012B03EB43135340F7E798B2002808BF1A
:100CC00001207047034B044A1A620022C3F8E8214E
:100CD000704700BFA42C0020A44507082DE9F84F59
:100CE00082468946FFF7DEFF134B1C6A834604B336
:100CF000E66804F1100707EB86063D46B54216D2BA
:100D0000A84658F8040B03889B450ED18378994573
:100D10000BD14A465146033022F016FA28B96368CF
:100D2000E81B03EBA000BDE8F88F4546E6E7246822
:100D3000DDE72046BDE8F88FA42C00202DE9F84F10
:100D400081460E46FFF7CAFF0246002840F0858024
:100D5000FF2E03D9424943480AF000FF424CD4F821
:100D6000E801351DD0B1D4F8F031D4F8EC112B44A2
:100D70008B4213D92944FFF7BBF9074648B902460D
:100D8000D4F8F011D4F8E801FFF7B2F9C4F8E8712B
:100D900004E0D4F8EC312B44C4F8EC31D4F8E83159
:100DA000B3B97F2D8CBF2F4680273846FFF785F9D2
:100DB000C4F8E80138B92846FFF77FF92A4BC3F891
:100DC000E80198B32F460023C4F8EC71C4F8F03161
:100DD000D4F8F0A1D4F8E8B1234F31465544484641
:100DE000C4F8F051FFF75EFF0BEB0A080BF80A009E
:100DF0003246000A88F80260464488F801004946F5
:100E000008F103004FF0000922F046F986F803903C
:100E1000236A9D68DB68AB4215D36D000A2D38BF8D
:100E20000A25281D8000FFF748F910B928460BF065
:100E300029FC3A6A02605168D36885600B444360BC
:100E4000C0F80C903862226AD1684B1C0431D36020
:100E500042F821805268013A1A441046BDE8F88FE2
:100E600044700608E8CA0608A42C002010B5044601
:100E700022F084F901462046BDE81040FFF75EBF2E
:100E800008B5FFF701FF008808BD08B5FFF7FCFEB5
:100E9000807808BD08B5FFF7F7FE033008BD08B538
:100EA000FFF7F2FE83780B60033008BD2DE9F843AD
:100EB0001D46002303600B6013602B60174BDFF8A7
:100EC00060901C6A0746884616460CB34C451FD0F6
:100ED0003B6801333B60D8F80020E3681344C8F84E
:100EE0000030E36804F1100202EB83018A4207D26A
:100EF00052F8043B98783368043303443360F5E7D1
:100F00002046FFF77BFC2B68246818442860DCE748
:100F10002A68336813442B60BDE8F883A42C0020B2
:100F2000A4450708F8B50C4B0C4F1C6A94B1BC42A1
:100F300010D0E36804F1100505EB8306B54207D233
:100F400055F8042B064907480332E2F71DFDF5E783
:100F50002468EBE7F8BD00BFA42C0020A4450708D7
:100F60004C7006083CAF060870B50023202511F828
:100F7000012F6AB3120622D50BB1057001300A7831
:100F8000144B02F07F0242B11C46013394F9006019
:100F9000002EF9DA013AD2B2F5E7013B044613F824
:100FA000012F12F0800F04F1010003D1044600F874
:100FB000012CF4E702F07F0222700123D7E7012B16
:100FC00004BF057001300B78037001300223CEE7B7
:100FD000027070BD5370060838B544680368214438
:100FE0009942054611D9037BDB0703D50021074849
:100FF0000AF0B4FD01F1100424F00704083421467E
:101000008068FFF76AF82C60A86038BDE8CA060857
:1010100070B505460E4611461446FFF7DDFF6B68B6
:10102000A86822461844314622F064F86B681C44D4
:101030006C6070BD70B5466804468E42354628BF68
:101040000D460121FFF7C8FFA368681C5919721BE0
:10105000184422F04FF86368A068013363602844A5
:1010600070BD38B504460025002914BF084601208C
:1010700020606560FFF716F8237BA06065F300032E
:10108000237338BD38B505460C460131FFF7E9FF3B
:101090006C6038BD00234360037B016043F00103B3
:1010A000826003737047000038B514460546FFF7A9
:1010B000D8FF024B2560636038BD00BF11100208E5
:1010C000037BDB0710B5044602D48068FFF712F8F3
:1010D0000023A36010BD38B505461020FEF7E2FFDF
:1010E00029460446FFF7BDFF204638BD10B504462B
:1010F00050B1037BDB0702D48068FEF7FBFF20467C
:10110000BDE81040FEF7F6BF10BD000038B5037B08
:10111000DB0704460D4603D5002107480AF01EFDF3
:10112000016880682944FEF7D8FF2368A0601D4449
:101130002560184438BD00BFE8CA060838B5044623
:101140000D46FFF749FF6368A0681D4465601844B9
:1011500038BD90E80C009A4210B5044602D1012136
:10116000FFF7D4FFA26863680021D154A06810BDC6
:1011700010B50C460121FFF7E1FF047010BD7F2977
:10118000F8B50D4604D80121FFF7D8FF0570F8BD6A
:10119000B1F5006F4FEA911401F03F0609D2022128
:1011A000FFF7CCFF64F03F0466F07F0604704670E2
:1011B000F8BDB1F5803F4FEA11370ED20321FFF79A
:1011C000BDFF04F03F0467F01F0764F07F0466F082
:1011D0007F06077044708670F8BD0421FFF7AEFFEC
:1011E000AD0C07F03F0704F03F0465F00F0567F012
:1011F0007F0764F07F0466F07F0605704770847097
:10120000C670F8BD38B5054608460C4621F0B6FF55
:10121000214602462846BDE83840FFF7F9BE10B522
:101220001446FFF707FF047010BD10B51446FFF712
:1012300001FF047010BD43688B4234BF00235B1A6A
:101240004360704738B5154642688A4204460B46EB
:101250000ED929448A4201D8436038BD8068D21A29
:10126000521B0144184421F045FF6268521B626022
:1012700038BD03781A0613D503F07F0340221342CA
:1012800003D023EA02035208F9E710F8012F02F015
:10129000C001802904D102F03F0242EA8313F4E73F
:1012A00018467047421C10460132037803F0C00311
:1012B000802BF8D070470023814207D911F8012D07
:1012C00002F0C002802A18BF0133F5E718467047C4
:1012D00001440346002099421A4608D9127802F0C8
:1012E000C002802A03F1010318BF0130F3E7704701
:1012F0007F289DBF024B185CC0F340000020704760
:1013000071AF06087F289DBF024B185CC0F3C00078
:101310000020704771AF06087F289DBF024B185C04
:10132000C0F380000020704771AF06087F289DBF82
:10133000024B185CC0F380100020704771AF0608A4
:101340007F2809D8064B1B5C13F00C0F06D1A0F1C7
:101350005F03584258417047002070470120704792
:1013600071AF06087F289DBF024B185CC0F30010C8
:101370000020704771AF06087F289DBF024B185CA4
:10138000C0F340100020704771AF060808B5024650
:10139000FFF7E8FF10B102F1200008BD104608BDBC
:1013A00008B50246FFF7E8FF10B1A2F1200008BD22
:1013B000104608BD3038092884BF20F020000738C7
:1013C000704710B501440246E5240020914218D927
:1013D00012F8013B30B103F0C003802B15D1013866
:1013E000C0B2F3E7BF2B09D9F72B0FD8DB0803F006
:1013F000060344FA03F303F00300E7E71B0605D4F2
:10140000E4E7B0FA80F0400910BD002010BD0239B9
:1014100081420B4603D31A880239002AF8D00233DE
:10142000181A4010704770B51C09944214D2121B50
:1014300001EB4401154603F00F030C6831F8026B11
:10144000012D08BF3446DC40A4B2013D20F8024B18
:10145000F3D11CB9501E70BD002070BD104670BD88
:10146000F0B5059F0024D21B2546BC420AD031F8B6
:1014700014E033F814607644354420F814502D0CF1
:101480000134F2E764000619023C21443746144651
:101490003CB131F8023F1D4427F8025B013C2D0CA2
:1014A000F6E706EB42031DB1012126F812100233C4
:1014B000181A4010F0BDF0B4049F0024D21B25463A
:1014C000BC420AD031F81460354433F81460AD1BC7
:1014D00020F814502D140134F2E764000719023C7F
:1014E0000C44164639463EB134F8023F1D4421F8FB
:1014F000025B013E2D14F6E707EB4201F0BCFFF75B
:1015000086BF2DE9F0439E4608AB93E84801079C4F
:10151000571E02398446C2EB04097C1C21D031F8E5
:10152000024F04F57F4509EB0704A74205F1FF05CB
:101530002E4423BFBEF8005005F57F44FF344FF61C
:10154000FF74444486EA040513FA85F32CF8023B41
:1015500028BF0EF1020E4FEA1448360C1B0C013F57
:10156000DBE700EB420113B120F812300231BDE895
:10157000F043FFF74CBF10B5044638B18068FEF762
:10158000B9FD2046BDE81040FEF7B4BD10BD38B52A
:101590000446806801298CBF0D46022518B12368D6
:1015A000B5EB930F07D96900FEF797FD2368A0609C
:1015B00065F39F03236038BD38B505460C20FEF760
:1015C00071FD2A78037862F300036FF34103044648
:1015D000037028682368C0F39D0060F39F032360B5
:1015E0006B6863604000FEF75DFDA0602A68A96833
:1015F000C2F39D02520021F04FFD204638BD10B5C8
:101600004B0018441A4449B130F8023D32F8024DFB
:101610001B1B002B04DB06D10139F4E7084610BD83
:101620004FF0FF3010BD012010BD38B505460C4607
:101630000221FFF7ACFF2B78002CB5BF43F001036C
:101640006FF300032B702B704FF00003B4BF6142A7
:1016500021466B6039B16B68AA68581C686022F833
:101660001310090CF6E738BD037803F0FE036FF39F
:101670004103037003686FF39F030360002343601B
:101680008360704728B103789B0702D48068FEF717
:1016900031BD704738B505460C464968FFF777FFFE
:1016A00022782B78A86862F300032B7063686B6064
:1016B0006268A1685200BDE8384021F0EDBC0346E5
:1016C00009B959607047FFF7B0BF08B5FFF7CCFF05
:1016D000BDE80840FFF7F3BF30B40578816005F03E
:1016E000FE0545F002050570056862F39F050022BE
:1016F00005604260194630BCFFF7E1BFF8B504460B
:101700009DF8185004211F461646FFF740FF237826
:1017100055B1002E77F1000206DA43F00103724260
:10172000237067EB470304E06FF300032370324636
:101730003B460021616052EA03010CD06168A06859
:101740004D1C656020F81120110C41EA0341180C72
:101750000A460346EFE7F8BD2DE9F04110EE106AA6
:101760000378F20F62F300030370C6F30F4313F420
:10177000FF43074603D100237B60BDE8F081B3F54A
:10178000FF4FF8D0C6F3C753A3F17F05002DF2DB5E
:1017900004D10121BDE8F041FFF747BF162DC6F384
:1017A0001606D8BFC5F1170546F40006DCBFEE40AB
:1017B0000025A3F16F084FF01004C8BF093598FB4E
:1017C000F4F8D8BF2C464146C2BF963B05F00F0542
:1017D00093FBF4F4FFF7DBFEC7F8048024B162004A
:1017E0000021B86821F09CFC45B1BB6806FA05F2FF
:1017F000C5F1100523F81420EE40013464004FEACF
:101800004808444504D0BB681E53360C0234F8E740
:10181000BDE8F0812DE9F8438F1804460D46C2F368
:101820005B0198460131089EFFF7B1FE2278B8F1BE
:10183000000F02D042F0010201E068F30002002331
:10184000227063602846B1B2B84230D20278A2F169
:101850003003092B00F1010E0CD9A2F14103192B21
:1018600002D8A2F1370305E0A2F16103192B1ED8BB
:10187000A2F15703B3421AD2A068D4F804C09BB2B5
:101880006246804642B1B8F8009009FB013328F85F
:10189000023B013A1B0CF5E700EB4C0213B120F8B8
:1018A0001C300232121A521062607046CCE7401BA4
:1018B000BDE8F883F8B5044615461E4621B1531E0F
:1018C0001E444FF0FF3700E00127E9000F310909FE
:1018D0002046FFF75CFE237800216FF3000323709E
:1018E00061609DB100230F2908DC32788A401343E0
:1018F000013D9BB201F108013E44F4D16268501CE5
:101900006060A068103920F81230EAE7A0686168CA
:1019100000EB4101FFF77BFD6060F8BD0A464168BE
:1019200038B509B95368C3B11378047803F00103DB
:1019300004F001055B1B10D15368994205D307D809
:1019400092688068FFF75BFE03E04FF0FF3000E035
:101950000120E30702D5404238BD184638BD884211
:1019600010B5044601D0FFF795FE23786FF300030E
:10197000237010BD884210B5044601D0FFF78AFEDF
:101980002378C3F30002C2F1010262F30003237063
:1019900010BD88421FB5044601D0FFF77BFE626888
:1019A00042B901212046FFF7F2FDA268012313800E
:1019B000636021E02378D9070ED56FF30003A16897
:1019C00023700123ADF80E30009308460DF10E038D
:1019D000FFF771FD606013E0511C2046FFF7D7FD53
:1019E000A16862680123ADF80E30009308460DF13E
:1019F0000E03FFF735FD6060237843F00103237089
:101A000004B010BD2DE9F0470F464968064614465C
:101A100001B12AB939463046BDE8F047FFF73ABE72
:101A200002F10F052D092944FFF7B1FD7968B3686C
:101A3000B86805EB010814F00F0208F1004404F146
:101A4000FF3401F1004E6FF0010C4FEA44040EF137
:101A5000FF3E0CFB01FC0CEB4E0E08BF1022234492
:101A600070449A464FF0000EC2F1100259B130F89E
:101A7000119049EA0E0929FA02FE2AF802E9013911
:101A80004FEA094EF2E72EFA02FE03EB0C0923F8A7
:101A90000CE06B00C3F1020305F100429944013AE6
:101AA0005200484621F03CFB02344C44B8F1000F90
:101AB00005D034F8023D13B908F1FF38F6E7C6F84F
:101AC00004803A78337862F300033370BDE8F0871E
:101AD000F0B50E46496885B00546144601B122B9F5
:101AE00031462846FFF7D6FD45E0FFF750FD234677
:101AF0007268B168A868FFF796FC686031782B7847
:101B000061F300032B70DB07024634D500237768AE
:101B1000ADF80E302109BB4212D08B4210D0B06814
:101B200030F8130050B10123B942ADF80E3009D39B
:101B30000123A968C2B90B806B601CE00133EAE79E
:101B4000B94218D2B36804F00F0433F8111001231E
:101B500003FA04F4013C214218BFADF80E30BDF881
:101B60000E30002BE4D106E0009308460DF10E0381
:101B7000FFF776FC686005B0F0BD73B553680C469E
:101B8000496899420646154606D308D89268A06867
:101B9000FFF735FD002802DA23462C461D46227841
:101BA0002B7861685340DB070CD430460131FFF7D6
:101BB000EEFC6B680093AB686268A168B068FFF7E1
:101BC0004FFC0AE03046FFF7E2FC6B680093AB681D
:101BD0006268A168B068FFF76EFC706022783378A5
:101BE00062F30003337002B070BDF7B553680C4662
:101BF000496899420646154606D30AD89268A068F5
:101C0000FFF7FDFC002804DA234601272C461D4679
:101C100000E0002722782B7861685340DB070CD561
:101C200030460131FFF7B3FC6B680093AB68626824
:101C3000A168B068FFF714FC0AE03046FFF7A7FC84
:101C40006B680093AB686268A168B068FFF733FC0B
:101C50007060227833781FB1C2F30002C2F1010232
:101C600062F30003337003B0F0BD2DE9F04F164668
:101C70004A6873689A420C463EBF34460B461E467D
:101C800023780546D80785B022D4337813F00107AE
:101C90001ED161682846FFF77AFCA868A468D6F8C8
:101CA00008E071683B46994208D034F813603EF86A
:101CB0001320324020F813200133F4E700EB4101F8
:101CC000FFF7A5FB2B7868606FF300032B7068E0CB
:101CD000616828460131FFF75AFCAB6800933278FF
:101CE0002378D4F804E0A1687068D6F80890DDF88D
:101CF00000B083EA020707F0010787F001075FFAE7
:101D000087F87F42BFB203F0010302F0010202979D
:101D10005F42BFB2C2F1000CA1F1020ACEEB00019A
:101D200001971FFA8CFC0EF1FF370391791C20D02C
:101D30003AF8021F019841400B4403990298394434
:101D40008F422ABFB9F8001061468CEA01010A44AB
:101D500003EA020181EA000118FA81F128BF09F1C2
:101D600002092BF8021B120C1B0C4FEA1148013F11
:101D7000DCE7009B03EB4E01B8F1000F04D0009AA2
:101D8000012322F81E3002310098FFF740FB686003
:101D900033782278C3F3000313402A7863F30002F8
:101DA0002A7005B0BDE8F08F2DE9F84F17464A6854
:101DB0007B689A420C463EBF3C460B461F46237842
:101DC000DA07064633D43B7813F001052FD161685A
:101DD000FFF7DDFB62687B68D6F808E0D4F808C03E
:101DE000D7F80880D01A2A46934208D03CF812400F
:101DF00038F8121021432EF812100132F4E75B007C
:101E00000EEB0302023B63440146144629B133F84A
:101E1000025F24F8025B0139F8E702EB4002CEEBE7
:101E2000020233785210726061F3000349E0616886
:101E300030460131FFF7ABFB7B682578D7F8088087
:101E40003F786168B068A46805F0010507F00107F4
:101E5000C5F1000CC7F1000E1FFA8CFC1FFA8EFEB4
:101E60004A1E023C82464FF00109C1EB030B531C92
:101E70001FD034F8023F83EA0C031D440BEB02032E
:101E80009A422ABFB8F8003073468EEA03031F4413
:101E900045EA07036FEA030319FA83F328BF08F141
:101EA00002082AF8023B3F0C2D0C4FEA1349013A75
:101EB000DDE700EB4101FFF7AAFA3378706043F0E9
:101EC00001033370BDE8F88FF0B516464A687368B1
:101ED0009A4238BF0B460C463CBF34461E46277814
:101EE000337861685F4017F0010785B0054639D146
:101EF000FFF74DFB227812F0010223D1736861686D
:101F0000A868A768D6F808E0C91A934208D037F83D
:101F100012603EF81240744020F812400132F4E79B
:101F20005B00C418023B3B440A4626462AB133F8FC
:101F3000027F26F8027B013AF8E704EB4101FFF744
:101F400066FA0AE003970297019773680093B368F3
:101F50006268A168A868FFF7D4FA2B7868606FF30D
:101F600000031CE00131FFF712FB3378A86803F08F
:101F7000010383F001030393237803F0010383F04B
:101F8000010302930123019373680093B3686268AD
:101F9000A168FFF7B6FA2B78686043F001032B7055
:101FA00005B0F0BD2DE9F04F4B6885B004460E46F4
:101FB00015460BB1536823B90023636005B0BDE833
:101FC000F08F814206D1FFF7F7FAAE42074608D1FB
:101FD000054606E0824206D1FFF7EEFA05460746BF
:101FE00002E03E4600E000276B6871682046194415
:101FF000FFF7CDFA2268A068C2F39D0252000021CB
:1020000021F08EF8A3680193B368D6F804C0029358
:10201000019BD5F808906A6803EB4C006FF0010350
:1020200003FB0CF303930023039900EB010822B395
:10203000029BE646A3F1020A0021BEF1000F0ED07A
:10204000B9F800B03AF8023F0BFB0313B8F800B040
:102050005B4428F8023B190C0EF1FF3EEDE7034606
:1020600000F1020E09B10180734601995B1A5B1001
:10207000013A09F102097046D6E7636031782B789E
:102080004B4013F0010F237838460CBF62F3000376
:1020900043F00103237005B0BDE8F04FFFF76BBAC2
:1020A0004B6870B50646144613B11378DA0702D5AB
:1020B0000023736070BD636823B90121BDE87040DF
:1020C000FFF7B3BA0846FFF777FA05462046FFF751
:1020D00073FA012104463046FFF7A7FA636883B11B
:1020E000A3681B88DB0704D52A4631463046FFF734
:1020F00059FFA168626801230846FFF794F9606000
:1021000038B92846FFF737FA2046BDE87040FFF798
:1021100032BA2A4629462846FFF744FFDEE72DE972
:10212000F04F0C46516891B091460131054603933A
